{
  "contractName": "NollaCoin",
  "abi": [
    {
      "inputs": [
        {
          "internalType": "uint256",
          "name": "initialSupply",
          "type": "uint256"
        }
      ],
      "stateMutability": "nonpayable",
      "type": "constructor"
    },
    {
      "anonymous": false,
      "inputs": [
        {
          "indexed": true,
          "internalType": "address",
          "name": "owner",
          "type": "address"
        },
        {
          "indexed": true,
          "internalType": "address",
          "name": "spender",
          "type": "address"
        },
        {
          "indexed": false,
          "internalType": "uint256",
          "name": "value",
          "type": "uint256"
        }
      ],
      "name": "Approval",
      "type": "event"
    },
    {
      "anonymous": false,
      "inputs": [
        {
          "indexed": true,
          "internalType": "address",
          "name": "from",
          "type": "address"
        },
        {
          "indexed": true,
          "internalType": "address",
          "name": "to",
          "type": "address"
        },
        {
          "indexed": false,
          "internalType": "uint256",
          "name": "value",
          "type": "uint256"
        }
      ],
      "name": "Transfer",
      "type": "event"
    },
    {
      "inputs": [
        {
          "internalType": "address",
          "name": "owner",
          "type": "address"
        },
        {
          "internalType": "address",
          "name": "spender",
          "type": "address"
        }
      ],
      "name": "allowance",
      "outputs": [
        {
          "internalType": "uint256",
          "name": "",
          "type": "uint256"
        }
      ],
      "stateMutability": "view",
      "type": "function"
    },
    {
      "inputs": [
        {
          "internalType": "address",
          "name": "spender",
          "type": "address"
        },
        {
          "internalType": "uint256",
          "name": "amount",
          "type": "uint256"
        }
      ],
      "name": "approve",
      "outputs": [
        {
          "internalType": "bool",
          "name": "",
          "type": "bool"
        }
      ],
      "stateMutability": "nonpayable",
      "type": "function"
    },
    {
      "inputs": [
        {
          "internalType": "address",
          "name": "account",
          "type": "address"
        }
      ],
      "name": "balanceOf",
      "outputs": [
        {
          "internalType": "uint256",
          "name": "",
          "type": "uint256"
        }
      ],
      "stateMutability": "view",
      "type": "function"
    },
    {
      "inputs": [
        {
          "internalType": "address",
          "name": "",
          "type": "address"
        }
      ],
      "name": "barkers",
      "outputs": [
        {
          "internalType": "bool",
          "name": "",
          "type": "bool"
        }
      ],
      "stateMutability": "view",
      "type": "function"
    },
    {
      "inputs": [],
      "name": "barksCost",
      "outputs": [
        {
          "internalType": "uint256",
          "name": "",
          "type": "uint256"
        }
      ],
      "stateMutability": "view",
      "type": "function"
    },
    {
      "inputs": [
        {
          "internalType": "address",
          "name": "",
          "type": "address"
        },
        {
          "internalType": "address",
          "name": "",
          "type": "address"
        }
      ],
      "name": "barksLedger",
      "outputs": [
        {
          "internalType": "uint256",
          "name": "",
          "type": "uint256"
        }
      ],
      "stateMutability": "view",
      "type": "function"
    },
    {
      "inputs": [
        {
          "internalType": "address",
          "name": "spender",
          "type": "address"
        },
        {
          "internalType": "uint256",
          "name": "subtractedValue",
          "type": "uint256"
        }
      ],
      "name": "decreaseAllowance",
      "outputs": [
        {
          "internalType": "bool",
          "name": "",
          "type": "bool"
        }
      ],
      "stateMutability": "nonpayable",
      "type": "function"
    },
    {
      "inputs": [
        {
          "internalType": "address",
          "name": "spender",
          "type": "address"
        },
        {
          "internalType": "uint256",
          "name": "addedValue",
          "type": "uint256"
        }
      ],
      "name": "increaseAllowance",
      "outputs": [
        {
          "internalType": "bool",
          "name": "",
          "type": "bool"
        }
      ],
      "stateMutability": "nonpayable",
      "type": "function"
    },
    {
      "inputs": [],
      "name": "name",
      "outputs": [
        {
          "internalType": "string",
          "name": "",
          "type": "string"
        }
      ],
      "stateMutability": "view",
      "type": "function"
    },
    {
      "inputs": [],
      "name": "symbol",
      "outputs": [
        {
          "internalType": "string",
          "name": "",
          "type": "string"
        }
      ],
      "stateMutability": "view",
      "type": "function"
    },
    {
      "inputs": [],
      "name": "totalSupply",
      "outputs": [
        {
          "internalType": "uint256",
          "name": "",
          "type": "uint256"
        }
      ],
      "stateMutability": "view",
      "type": "function"
    },
    {
      "inputs": [
        {
          "internalType": "address",
          "name": "recipient",
          "type": "address"
        },
        {
          "internalType": "uint256",
          "name": "amount",
          "type": "uint256"
        }
      ],
      "name": "transfer",
      "outputs": [
        {
          "internalType": "bool",
          "name": "",
          "type": "bool"
        }
      ],
      "stateMutability": "nonpayable",
      "type": "function"
    },
    {
      "inputs": [
        {
          "internalType": "address",
          "name": "sender",
          "type": "address"
        },
        {
          "internalType": "address",
          "name": "recipient",
          "type": "address"
        },
        {
          "internalType": "uint256",
          "name": "amount",
          "type": "uint256"
        }
      ],
      "name": "transferFrom",
      "outputs": [
        {
          "internalType": "bool",
          "name": "",
          "type": "bool"
        }
      ],
      "stateMutability": "nonpayable",
      "type": "function"
    },
    {
      "inputs": [],
      "name": "decimals",
      "outputs": [
        {
          "internalType": "uint8",
          "name": "",
          "type": "uint8"
        }
      ],
      "stateMutability": "pure",
      "type": "function"
    },
    {
      "inputs": [
        {
          "internalType": "address",
          "name": "barkee",
          "type": "address"
        },
        {
          "internalType": "uint8",
          "name": "barksAmount",
          "type": "uint8"
        }
      ],
      "name": "bark",
      "outputs": [],
      "stateMutability": "nonpayable",
      "type": "function"
    }
  ],
  "bytecode": "0x60806040526103e86007553480156200001757600080fd5b50604051620021d0380380620021d083398181016040528101906200003d91906200039c565b6040518060400160405280600981526020017f4e6f6c6c61436f696e00000000000000000000000000000000000000000000008152506040518060400160405280600381526020017f4e4f4c00000000000000000000000000000000000000000000000000000000008152508160039080519060200190620000c1929190620002ac565b508060049080519060200190620000da929190620002ac565b5050506200011933620000f26200012060201b60201c565b600a6200010091906200055e565b836200010d9190620005af565b6200012960201b60201c565b5062000783565b60006014905090565b600073ffffffffffffffffffffffffffffffffffffffff168273ffffffffffffffffffffffffffffffffffffffff1614156200019c576040517f08c379a0000000000000000000000000000000000000000000000000000000008152600401620001939062000671565b60405180910390fd5b620001b060008383620002a260201b60201c565b8060026000828254620001c4919062000693565b92505081905550806000808473ffffffffffffffffffffffffffffffffffffffff1673ffffffffffffffffffffffffffffffffffffffff16815260200190815260200160002060008282546200021b919062000693565b925050819055508173ffffffffffffffffffffffffffffffffffffffff16600073ffffffffffffffffffffffffffffffffffffffff167fddf252ad1be2c89b69c2b068fc378daa952ba7f163c4a11628f55a4df523b3ef8360405162000282919062000701565b60405180910390a36200029e60008383620002a760201b60201c565b5050565b505050565b505050565b828054620002ba906200074d565b90600052602060002090601f016020900481019282620002de57600085556200032a565b82601f10620002f957805160ff19168380011785556200032a565b828001600101855582156200032a579182015b82811115620003295782518255916020019190600101906200030c565b5b5090506200033991906200033d565b5090565b5b80821115620003585760008160009055506001016200033e565b5090565b600080fd5b6000819050919050565b620003768162000361565b81146200038257600080fd5b50565b60008151905062000396816200036b565b92915050565b600060208284031215620003b557620003b46200035c565b5b6000620003c58482850162000385565b91505092915050565b7f4e487b7100000000000000000000000000000000000000000000000000000000600052601160045260246000fd5b60008160011c9050919050565b6000808291508390505b60018511156200045c57808604811115620004345762000433620003ce565b5b6001851615620004445780820291505b80810290506200045485620003fd565b945062000414565b94509492505050565b6000826200047757600190506200054a565b816200048757600090506200054a565b8160018114620004a05760028114620004ab57620004e1565b60019150506200054a565b60ff841115620004c057620004bf620003ce565b5b8360020a915084821115620004da57620004d9620003ce565b5b506200054a565b5060208310610133831016604e8410600b84101617156200051b5782820a905083811115620005155762000514620003ce565b5b6200054a565b6200052a84848460016200040a565b92509050818404811115620005445762000543620003ce565b5b81810290505b9392505050565b600060ff82169050919050565b60006200056b8262000361565b9150620005788362000551565b9250620005a77fffffffffffffffffffffffffffffffffffffffffffffffffffffffffffffffff848462000465565b905092915050565b6000620005bc8262000361565b9150620005c98362000361565b9250817fffffffffffffffffffffffffffffffffffffffffffffffffffffffffffffffff0483118215151615620006055762000604620003ce565b5b828202905092915050565b600082825260208201905092915050565b7f45524332303a206d696e7420746f20746865207a65726f206164647265737300600082015250565b600062000659601f8362000610565b9150620006668262000621565b602082019050919050565b600060208201905081810360008301526200068c816200064a565b9050919050565b6000620006a08262000361565b9150620006ad8362000361565b9250827fffffffffffffffffffffffffffffffffffffffffffffffffffffffffffffffff03821115620006e557620006e4620003ce565b5b828201905092915050565b620006fb8162000361565b82525050565b6000602082019050620007186000830184620006f0565b92915050565b7f4e487b7100000000000000000000000000000000000000000000000000000000600052602260045260246000fd5b600060028204905060018216806200076657607f821691505b602082108114156200077d576200077c6200071e565b5b50919050565b611a3d80620007936000396000f3fe608060405234801561001057600080fd5b50600436106100f55760003560e01c806370a0823111610097578063a457c2d711610066578063a457c2d71461029c578063a9059cbb146102cc578063dd62ed3e146102fc578063e5f63fc51461032c576100f5565b806370a082311461020057806388acf1b914610230578063938994d41461026057806395d89b411461027e576100f5565b806323b872dd116100d357806323b872dd14610166578063313ce5671461019657806339509351146101b45780635904e847146101e4576100f5565b806306fdde03146100fa578063095ea7b31461011857806318160ddd14610148575b600080fd5b61010261035c565b60405161010f91906110b3565b60405180910390f35b610132600480360381019061012d919061116e565b6103ee565b60405161013f91906111c9565b60405180910390f35b61015061040c565b60405161015d91906111f3565b60405180910390f35b610180600480360381019061017b919061120e565b610416565b60405161018d91906111c9565b60405180910390f35b61019e61050e565b6040516101ab919061127d565b60405180910390f35b6101ce60048036038101906101c9919061116e565b610517565b6040516101db91906111c9565b60405180910390f35b6101fe60048036038101906101f991906112c4565b6105c3565b005b61021a60048036038101906102159190611304565b610730565b60405161022791906111f3565b60405180910390f35b61024a60048036038101906102459190611304565b610778565b60405161025791906111c9565b60405180910390f35b610268610798565b60405161027591906111f3565b60405180910390f35b61028661079e565b60405161029391906110b3565b60405180910390f35b6102b660048036038101906102b1919061116e565b610830565b6040516102c391906111c9565b60405180910390f35b6102e660048036038101906102e1919061116e565b61091b565b6040516102f391906111c9565b60405180910390f35b61031660048036038101906103119190611331565b610939565b60405161032391906111f3565b60405180910390f35b61034660048036038101906103419190611331565b6109c0565b60405161035391906111f3565b60405180910390f35b60606003805461036b906113a0565b80601f0160208091040260200160405190810160405280929190818152602001828054610397906113a0565b80156103e45780601f106103b9576101008083540402835291602001916103e4565b820191906000526020600020905b8154815290600101906020018083116103c757829003601f168201915b5050505050905090565b60006104026103fb6109e5565b84846109ed565b6001905092915050565b6000600254905090565b6000610423848484610bb8565b6000600160008673ffffffffffffffffffffffffffffffffffffffff1673ffffffffffffffffffffffffffffffffffffffff168152602001908152602001600020600061046e6109e5565b73ffffffffffffffffffffffffffffffffffffffff1673ffffffffffffffffffffffffffffffffffffffff168152602001908152602001600020549050828110156104ee576040517f08c379a00000000000000000000000000000000000000000000000000000000081526004016104e590611444565b60405180910390fd5b610502856104fa6109e5565b8584036109ed565b60019150509392505050565b60006014905090565b60006105b96105246109e5565b8484600160006105326109e5565b73ffffffffffffffffffffffffffffffffffffffff1673ffffffffffffffffffffffffffffffffffffffff16815260200190815260200160002060008873ffffffffffffffffffffffffffffffffffffffff1673ffffffffffffffffffffffffffffffffffffffff168152602001908152602001600020546105b49190611493565b6109ed565b6001905092915050565b8060ff166007546105d491906114e9565b6105dd33610730565b116105e757600080fd5b6000600660008473ffffffffffffffffffffffffffffffffffffffff1673ffffffffffffffffffffffffffffffffffffffff16815260200190815260200160002090508160ff168160003373ffffffffffffffffffffffffffffffffffffffff1673ffffffffffffffffffffffffffffffffffffffff168152602001908152602001600020546106779190611493565b8160003373ffffffffffffffffffffffffffffffffffffffff1673ffffffffffffffffffffffffffffffffffffffff168152602001908152602001600020819055506001600560003373ffffffffffffffffffffffffffffffffffffffff1673ffffffffffffffffffffffffffffffffffffffff16815260200190815260200160002060006101000a81548160ff02191690831515021790555061072b338360ff1660075461072691906114e9565b610e39565b505050565b60008060008373ffffffffffffffffffffffffffffffffffffffff1673ffffffffffffffffffffffffffffffffffffffff168152602001908152602001600020549050919050565b60056020528060005260406000206000915054906101000a900460ff1681565b60075481565b6060600480546107ad906113a0565b80601f01602080910402602001604051908101604052809291908181526020018280546107d9906113a0565b80156108265780601f106107fb57610100808354040283529160200191610826565b820191906000526020600020905b81548152906001019060200180831161080957829003601f168201915b5050505050905090565b6000806001600061083f6109e5565b73ffffffffffffffffffffffffffffffffffffffff1673ffffffffffffffffffffffffffffffffffffffff16815260200190815260200160002060008573ffffffffffffffffffffffffffffffffffffffff1673ffffffffffffffffffffffffffffffffffffffff168152602001908152602001600020549050828110156108fc576040517f08c379a00000000000000000000000000000000000000000000000000000000081526004016108f3906115b5565b60405180910390fd5b6109106109076109e5565b858584036109ed565b600191505092915050565b600061092f6109286109e5565b8484610bb8565b6001905092915050565b6000600160008473ffffffffffffffffffffffffffffffffffffffff1673ffffffffffffffffffffffffffffffffffffffff16815260200190815260200160002060008373ffffffffffffffffffffffffffffffffffffffff1673ffffffffffffffffffffffffffffffffffffffff16815260200190815260200160002054905092915050565b6006602052816000526040600020602052806000526040600020600091509150505481565b600033905090565b600073ffffffffffffffffffffffffffffffffffffffff168373ffffffffffffffffffffffffffffffffffffffff161415610a5d576040517f08c379a0000000000000000000000000000000000000000000000000000000008152600401610a5490611647565b60405180910390fd5b600073ffffffffffffffffffffffffffffffffffffffff168273ffffffffffffffffffffffffffffffffffffffff161415610acd576040517f08c379a0000000000000000000000000000000000000000000000000000000008152600401610ac4906116d9565b60405180910390fd5b80600160008573ffffffffffffffffffffffffffffffffffffffff1673ffffffffffffffffffffffffffffffffffffffff16815260200190815260200160002060008473ffffffffffffffffffffffffffffffffffffffff1673ffffffffffffffffffffffffffffffffffffffff168152602001908152602001600020819055508173ffffffffffffffffffffffffffffffffffffffff168373ffffffffffffffffffffffffffffffffffffffff167f8c5be1e5ebec7d5bd14f71427d1e84f3dd0314c0f7b2291e5b200ac8c7c3b92583604051610bab91906111f3565b60405180910390a3505050565b600073ffffffffffffffffffffffffffffffffffffffff168373ffffffffffffffffffffffffffffffffffffffff161415610c28576040517f08c379a0000000000000000000000000000000000000000000000000000000008152600401610c1f9061176b565b60405180910390fd5b600073ffffffffffffffffffffffffffffffffffffffff168273ffffffffffffffffffffffffffffffffffffffff161415610c98576040517f08c379a0000000000000000000000000000000000000000000000000000000008152600401610c8f906117fd565b60405180910390fd5b610ca3838383611010565b60008060008573ffffffffffffffffffffffffffffffffffffffff1673ffffffffffffffffffffffffffffffffffffffff16815260200190815260200160002054905081811015610d29576040517f08c379a0000000000000000000000000000000000000000000000000000000008152600401610d209061188f565b60405180910390fd5b8181036000808673ffffffffffffffffffffffffffffffffffffffff1673ffffffffffffffffffffffffffffffffffffffff16815260200190815260200160002081905550816000808573ffffffffffffffffffffffffffffffffffffffff1673ffffffffffffffffffffffffffffffffffffffff1681526020019081526020016000206000828254610dbc9190611493565b925050819055508273ffffffffffffffffffffffffffffffffffffffff168473ffffffffffffffffffffffffffffffffffffffff167fddf252ad1be2c89b69c2b068fc378daa952ba7f163c4a11628f55a4df523b3ef84604051610e2091906111f3565b60405180910390a3610e33848484611015565b50505050565b600073ffffffffffffffffffffffffffffffffffffffff168273ffffffffffffffffffffffffffffffffffffffff161415610ea9576040517f08c379a0000000000000000000000000000000000000000000000000000000008152600401610ea090611921565b60405180910390fd5b610eb582600083611010565b60008060008473ffffffffffffffffffffffffffffffffffffffff1673ffffffffffffffffffffffffffffffffffffffff16815260200190815260200160002054905081811015610f3b576040517f08c379a0000000000000000000000000000000000000000000000000000000008152600401610f32906119b3565b60405180910390fd5b8181036000808573ffffffffffffffffffffffffffffffffffffffff1673ffffffffffffffffffffffffffffffffffffffff168152602001908152602001600020819055508160026000828254610f9291906119d3565b92505081905550600073ffffffffffffffffffffffffffffffffffffffff168373ffffffffffffffffffffffffffffffffffffffff167fddf252ad1be2c89b69c2b068fc378daa952ba7f163c4a11628f55a4df523b3ef84604051610ff791906111f3565b60405180910390a361100b83600084611015565b505050565b505050565b505050565b600081519050919050565b600082825260208201905092915050565b60005b83811015611054578082015181840152602081019050611039565b83811115611063576000848401525b50505050565b6000601f19601f8301169050919050565b60006110858261101a565b61108f8185611025565b935061109f818560208601611036565b6110a881611069565b840191505092915050565b600060208201905081810360008301526110cd818461107a565b905092915050565b600080fd5b600073ffffffffffffffffffffffffffffffffffffffff82169050919050565b6000611105826110da565b9050919050565b611115816110fa565b811461112057600080fd5b50565b6000813590506111328161110c565b92915050565b6000819050919050565b61114b81611138565b811461115657600080fd5b50565b60008135905061116881611142565b92915050565b60008060408385031215611185576111846110d5565b5b600061119385828601611123565b92505060206111a485828601611159565b9150509250929050565b60008115159050919050565b6111c3816111ae565b82525050565b60006020820190506111de60008301846111ba565b92915050565b6111ed81611138565b82525050565b600060208201905061120860008301846111e4565b92915050565b600080600060608486031215611227576112266110d5565b5b600061123586828701611123565b935050602061124686828701611123565b925050604061125786828701611159565b9150509250925092565b600060ff82169050919050565b61127781611261565b82525050565b6000602082019050611292600083018461126e565b92915050565b6112a181611261565b81146112ac57600080fd5b50565b6000813590506112be81611298565b92915050565b600080604083850312156112db576112da6110d5565b5b60006112e985828601611123565b92505060206112fa858286016112af565b9150509250929050565b60006020828403121561131a576113196110d5565b5b600061132884828501611123565b91505092915050565b60008060408385031215611348576113476110d5565b5b600061135685828601611123565b925050602061136785828601611123565b9150509250929050565b7f4e487b7100000000000000000000000000000000000000000000000000000000600052602260045260246000fd5b600060028204905060018216806113b857607f821691505b602082108114156113cc576113cb611371565b5b50919050565b7f45524332303a207472616e7366657220616d6f756e742065786365656473206160008201527f6c6c6f77616e6365000000000000000000000000000000000000000000000000602082015250565b600061142e602883611025565b9150611439826113d2565b604082019050919050565b6000602082019050818103600083015261145d81611421565b9050919050565b7f4e487b7100000000000000000000000000000000000000000000000000000000600052601160045260246000fd5b600061149e82611138565b91506114a983611138565b9250827fffffffffffffffffffffffffffffffffffffffffffffffffffffffffffffffff038211156114de576114dd611464565b5b828201905092915050565b60006114f482611138565b91506114ff83611138565b9250817fffffffffffffffffffffffffffffffffffffffffffffffffffffffffffffffff048311821515161561153857611537611464565b5b828202905092915050565b7f45524332303a2064656372656173656420616c6c6f77616e63652062656c6f7760008201527f207a65726f000000000000000000000000000000000000000000000000000000602082015250565b600061159f602583611025565b91506115aa82611543565b604082019050919050565b600060208201905081810360008301526115ce81611592565b9050919050565b7f45524332303a20617070726f76652066726f6d20746865207a65726f2061646460008201527f7265737300000000000000000000000000000000000000000000000000000000602082015250565b6000611631602483611025565b915061163c826115d5565b604082019050919050565b6000602082019050818103600083015261166081611624565b9050919050565b7f45524332303a20617070726f766520746f20746865207a65726f20616464726560008201527f7373000000000000000000000000000000000000000000000000000000000000602082015250565b60006116c3602283611025565b91506116ce82611667565b604082019050919050565b600060208201905081810360008301526116f2816116b6565b9050919050565b7f45524332303a207472616e736665722066726f6d20746865207a65726f20616460008201527f6472657373000000000000000000000000000000000000000000000000000000602082015250565b6000611755602583611025565b9150611760826116f9565b604082019050919050565b6000602082019050818103600083015261178481611748565b9050919050565b7f45524332303a207472616e7366657220746f20746865207a65726f206164647260008201527f6573730000000000000000000000000000000000000000000000000000000000602082015250565b60006117e7602383611025565b91506117f28261178b565b604082019050919050565b60006020820190508181036000830152611816816117da565b9050919050565b7f45524332303a207472616e7366657220616d6f756e742065786365656473206260008201527f616c616e63650000000000000000000000000000000000000000000000000000602082015250565b6000611879602683611025565b91506118848261181d565b604082019050919050565b600060208201905081810360008301526118a88161186c565b9050919050565b7f45524332303a206275726e2066726f6d20746865207a65726f2061646472657360008201527f7300000000000000000000000000000000000000000000000000000000000000602082015250565b600061190b602183611025565b9150611916826118af565b604082019050919050565b6000602082019050818103600083015261193a816118fe565b9050919050565b7f45524332303a206275726e20616d6f756e7420657863656564732062616c616e60008201527f6365000000000000000000000000000000000000000000000000000000000000602082015250565b600061199d602283611025565b91506119a882611941565b604082019050919050565b600060208201905081810360008301526119cc81611990565b9050919050565b60006119de82611138565b91506119e983611138565b9250828210156119fc576119fb611464565b5b82820390509291505056fea264697066735822122016ce730b644c6ed1201884fe86224ff71b0e07dbf2c66eb2c5d0c55801c0787164736f6c634300080a0033",
  "immutableReferences": {},
  "source": "// SPDX-License-Identifier: MIT\npragma solidity >0.8.0;\n\nimport \"@openzeppelin/contracts/token/ERC20/ERC20.sol\";\n\ncontract NollaCoin is ERC20 {\n  mapping(address => bool) public barkers;\n  mapping(address => mapping(address => uint256)) public barksLedger; // Key is user who has been barked upon. Value is a mapping of users who barked on the user, and how many times each user barked on them.\n  uint256 public barksCost = 1000;\n\n  constructor(uint256 initialSupply) ERC20(\"NollaCoin\", \"NOL\") {\n    _mint(msg.sender, initialSupply * 10**decimals());\n  }\n\n  function decimals() public pure override returns (uint8) {\n    return 20;\n  }\n\n  function bark(address barkee, uint8 barksAmount) external {\n    require(balanceOf(msg.sender) > (barksCost * barksAmount)); // Barker must have 1000 NollaCoin wei per bark to bark at other users\n\n    mapping(address => uint256) storage barkersOnUserList = barksLedger[barkee]; // Get full list of users who barked on the barkee\n    barkersOnUserList[msg.sender] = barkersOnUserList[msg.sender] + barksAmount; // Go the \"row\" where the amount of times the barker barked upon the barkee is, and increment it by 1\n\n    barkers[msg.sender] = true; // Add barker to barkers list\n    _burn(msg.sender, barksCost * barksAmount); // Burn the barking fee from the barker's account\n  }\n\n  //   function cashBarksIn() {}\n}\n",
  "sourcePath": "/Users/shepard/Code/GitHub/yuvd/nollacoin/contracts/NollaCoin.sol",
  "compiler": {
    "name": "solc",
    "version": "0.8.10+commit.fc410830.Emscripten.clang"
  },
  "schemaVersion": "3.4.3",
  "updatedAt": "2021-11-25T16:28:54.220Z",
  "devdoc": {
    "kind": "dev",
    "methods": {
      "allowance(address,address)": {
        "details": "See {IERC20-allowance}."
      },
      "approve(address,uint256)": {
        "details": "See {IERC20-approve}. Requirements: - `spender` cannot be the zero address."
      },
      "balanceOf(address)": {
        "details": "See {IERC20-balanceOf}."
      },
      "decimals()": {
        "details": "Returns the number of decimals used to get its user representation. For example, if `decimals` equals `2`, a balance of `505` tokens should be displayed to a user as `5.05` (`505 / 10 ** 2`). Tokens usually opt for a value of 18, imitating the relationship between Ether and Wei. This is the value {ERC20} uses, unless this function is overridden; NOTE: This information is only used for _display_ purposes: it in no way affects any of the arithmetic of the contract, including {IERC20-balanceOf} and {IERC20-transfer}."
      },
      "decreaseAllowance(address,uint256)": {
        "details": "Atomically decreases the allowance granted to `spender` by the caller. This is an alternative to {approve} that can be used as a mitigation for problems described in {IERC20-approve}. Emits an {Approval} event indicating the updated allowance. Requirements: - `spender` cannot be the zero address. - `spender` must have allowance for the caller of at least `subtractedValue`."
      },
      "increaseAllowance(address,uint256)": {
        "details": "Atomically increases the allowance granted to `spender` by the caller. This is an alternative to {approve} that can be used as a mitigation for problems described in {IERC20-approve}. Emits an {Approval} event indicating the updated allowance. Requirements: - `spender` cannot be the zero address."
      },
      "name()": {
        "details": "Returns the name of the token."
      },
      "symbol()": {
        "details": "Returns the symbol of the token, usually a shorter version of the name."
      },
      "totalSupply()": {
        "details": "See {IERC20-totalSupply}."
      },
      "transfer(address,uint256)": {
        "details": "See {IERC20-transfer}. Requirements: - `recipient` cannot be the zero address. - the caller must have a balance of at least `amount`."
      },
      "transferFrom(address,address,uint256)": {
        "details": "See {IERC20-transferFrom}. Emits an {Approval} event indicating the updated allowance. This is not required by the EIP. See the note at the beginning of {ERC20}. Requirements: - `sender` and `recipient` cannot be the zero address. - `sender` must have a balance of at least `amount`. - the caller must have allowance for ``sender``'s tokens of at least `amount`."
      }
    },
    "version": 1
  },
  "userdoc": {
    "kind": "user",
    "methods": {},
    "version": 1
  }
}