{
  "contractName": "NollaCoin",
  "abi": [
    {
      "inputs": [
        {
          "internalType": "uint256",
          "name": "initialSupply",
          "type": "uint256"
        }
      ],
      "stateMutability": "nonpayable",
      "type": "constructor"
    },
    {
      "anonymous": false,
      "inputs": [
        {
          "indexed": true,
          "internalType": "address",
          "name": "owner",
          "type": "address"
        },
        {
          "indexed": true,
          "internalType": "address",
          "name": "spender",
          "type": "address"
        },
        {
          "indexed": false,
          "internalType": "uint256",
          "name": "value",
          "type": "uint256"
        }
      ],
      "name": "Approval",
      "type": "event"
    },
    {
      "anonymous": false,
      "inputs": [
        {
          "indexed": true,
          "internalType": "address",
          "name": "from",
          "type": "address"
        },
        {
          "indexed": true,
          "internalType": "address",
          "name": "to",
          "type": "address"
        },
        {
          "indexed": false,
          "internalType": "uint256",
          "name": "value",
          "type": "uint256"
        }
      ],
      "name": "Transfer",
      "type": "event"
    },
    {
      "inputs": [
        {
          "internalType": "address",
          "name": "owner",
          "type": "address"
        },
        {
          "internalType": "address",
          "name": "spender",
          "type": "address"
        }
      ],
      "name": "allowance",
      "outputs": [
        {
          "internalType": "uint256",
          "name": "",
          "type": "uint256"
        }
      ],
      "stateMutability": "view",
      "type": "function",
      "constant": true
    },
    {
      "inputs": [
        {
          "internalType": "address",
          "name": "spender",
          "type": "address"
        },
        {
          "internalType": "uint256",
          "name": "amount",
          "type": "uint256"
        }
      ],
      "name": "approve",
      "outputs": [
        {
          "internalType": "bool",
          "name": "",
          "type": "bool"
        }
      ],
      "stateMutability": "nonpayable",
      "type": "function"
    },
    {
      "inputs": [
        {
          "internalType": "address",
          "name": "account",
          "type": "address"
        }
      ],
      "name": "balanceOf",
      "outputs": [
        {
          "internalType": "uint256",
          "name": "",
          "type": "uint256"
        }
      ],
      "stateMutability": "view",
      "type": "function",
      "constant": true
    },
    {
      "inputs": [],
      "name": "barksCost",
      "outputs": [
        {
          "internalType": "uint256",
          "name": "",
          "type": "uint256"
        }
      ],
      "stateMutability": "view",
      "type": "function",
      "constant": true
    },
    {
      "inputs": [
        {
          "internalType": "address",
          "name": "",
          "type": "address"
        },
        {
          "internalType": "address",
          "name": "",
          "type": "address"
        }
      ],
      "name": "barksLedger",
      "outputs": [
        {
          "internalType": "uint256",
          "name": "",
          "type": "uint256"
        }
      ],
      "stateMutability": "view",
      "type": "function",
      "constant": true
    },
    {
      "inputs": [
        {
          "internalType": "address",
          "name": "spender",
          "type": "address"
        },
        {
          "internalType": "uint256",
          "name": "subtractedValue",
          "type": "uint256"
        }
      ],
      "name": "decreaseAllowance",
      "outputs": [
        {
          "internalType": "bool",
          "name": "",
          "type": "bool"
        }
      ],
      "stateMutability": "nonpayable",
      "type": "function"
    },
    {
      "inputs": [
        {
          "internalType": "address",
          "name": "spender",
          "type": "address"
        },
        {
          "internalType": "uint256",
          "name": "addedValue",
          "type": "uint256"
        }
      ],
      "name": "increaseAllowance",
      "outputs": [
        {
          "internalType": "bool",
          "name": "",
          "type": "bool"
        }
      ],
      "stateMutability": "nonpayable",
      "type": "function"
    },
    {
      "inputs": [],
      "name": "name",
      "outputs": [
        {
          "internalType": "string",
          "name": "",
          "type": "string"
        }
      ],
      "stateMutability": "view",
      "type": "function",
      "constant": true
    },
    {
      "inputs": [],
      "name": "symbol",
      "outputs": [
        {
          "internalType": "string",
          "name": "",
          "type": "string"
        }
      ],
      "stateMutability": "view",
      "type": "function",
      "constant": true
    },
    {
      "inputs": [],
      "name": "totalSupply",
      "outputs": [
        {
          "internalType": "uint256",
          "name": "",
          "type": "uint256"
        }
      ],
      "stateMutability": "view",
      "type": "function",
      "constant": true
    },
    {
      "inputs": [
        {
          "internalType": "address",
          "name": "recipient",
          "type": "address"
        },
        {
          "internalType": "uint256",
          "name": "amount",
          "type": "uint256"
        }
      ],
      "name": "transfer",
      "outputs": [
        {
          "internalType": "bool",
          "name": "",
          "type": "bool"
        }
      ],
      "stateMutability": "nonpayable",
      "type": "function"
    },
    {
      "inputs": [
        {
          "internalType": "address",
          "name": "sender",
          "type": "address"
        },
        {
          "internalType": "address",
          "name": "recipient",
          "type": "address"
        },
        {
          "internalType": "uint256",
          "name": "amount",
          "type": "uint256"
        }
      ],
      "name": "transferFrom",
      "outputs": [
        {
          "internalType": "bool",
          "name": "",
          "type": "bool"
        }
      ],
      "stateMutability": "nonpayable",
      "type": "function"
    },
    {
      "inputs": [
        {
          "internalType": "address",
          "name": "",
          "type": "address"
        }
      ],
      "name": "userBarks",
      "outputs": [
        {
          "internalType": "uint256",
          "name": "",
          "type": "uint256"
        }
      ],
      "stateMutability": "view",
      "type": "function",
      "constant": true
    },
    {
      "inputs": [],
      "name": "decimals",
      "outputs": [
        {
          "internalType": "uint8",
          "name": "",
          "type": "uint8"
        }
      ],
      "stateMutability": "pure",
      "type": "function",
      "constant": true
    },
    {
      "inputs": [
        {
          "internalType": "address",
          "name": "barkee",
          "type": "address"
        },
        {
          "internalType": "uint8",
          "name": "barksAmount",
          "type": "uint8"
        }
      ],
      "name": "bark",
      "outputs": [],
      "stateMutability": "payable",
      "type": "function",
      "payable": true
    },
    {
      "inputs": [
        {
          "internalType": "uint256",
          "name": "amountToCashIn",
          "type": "uint256"
        },
        {
          "internalType": "address",
          "name": "barker",
          "type": "address"
        }
      ],
      "name": "cashBarksIn",
      "outputs": [],
      "stateMutability": "nonpayable",
      "type": "function"
    }
  ],
  "bytecode": "0x60806040526103e86007553480156200001757600080fd5b50604051620027213803806200272183398181016040528101906200003d91906200039c565b6040518060400160405280600981526020017f4e6f6c6c61436f696e00000000000000000000000000000000000000000000008152506040518060400160405280600381526020017f4e4f4c00000000000000000000000000000000000000000000000000000000008152508160039080519060200190620000c1929190620002ac565b508060049080519060200190620000da929190620002ac565b5050506200011933620000f26200012060201b60201c565b600a6200010091906200055e565b836200010d9190620005af565b6200012960201b60201c565b5062000783565b60006014905090565b600073ffffffffffffffffffffffffffffffffffffffff168273ffffffffffffffffffffffffffffffffffffffff1614156200019c576040517f08c379a0000000000000000000000000000000000000000000000000000000008152600401620001939062000671565b60405180910390fd5b620001b060008383620002a260201b60201c565b8060026000828254620001c4919062000693565b92505081905550806000808473ffffffffffffffffffffffffffffffffffffffff1673ffffffffffffffffffffffffffffffffffffffff16815260200190815260200160002060008282546200021b919062000693565b925050819055508173ffffffffffffffffffffffffffffffffffffffff16600073ffffffffffffffffffffffffffffffffffffffff167fddf252ad1be2c89b69c2b068fc378daa952ba7f163c4a11628f55a4df523b3ef8360405162000282919062000701565b60405180910390a36200029e60008383620002a760201b60201c565b5050565b505050565b505050565b828054620002ba906200074d565b90600052602060002090601f016020900481019282620002de57600085556200032a565b82601f10620002f957805160ff19168380011785556200032a565b828001600101855582156200032a579182015b82811115620003295782518255916020019190600101906200030c565b5b5090506200033991906200033d565b5090565b5b80821115620003585760008160009055506001016200033e565b5090565b600080fd5b6000819050919050565b620003768162000361565b81146200038257600080fd5b50565b60008151905062000396816200036b565b92915050565b600060208284031215620003b557620003b46200035c565b5b6000620003c58482850162000385565b91505092915050565b7f4e487b7100000000000000000000000000000000000000000000000000000000600052601160045260246000fd5b60008160011c9050919050565b6000808291508390505b60018511156200045c57808604811115620004345762000433620003ce565b5b6001851615620004445780820291505b80810290506200045485620003fd565b945062000414565b94509492505050565b6000826200047757600190506200054a565b816200048757600090506200054a565b8160018114620004a05760028114620004ab57620004e1565b60019150506200054a565b60ff841115620004c057620004bf620003ce565b5b8360020a915084821115620004da57620004d9620003ce565b5b506200054a565b5060208310610133831016604e8410600b84101617156200051b5782820a905083811115620005155762000514620003ce565b5b6200054a565b6200052a84848460016200040a565b92509050818404811115620005445762000543620003ce565b5b81810290505b9392505050565b600060ff82169050919050565b60006200056b8262000361565b9150620005788362000551565b9250620005a77fffffffffffffffffffffffffffffffffffffffffffffffffffffffffffffffff848462000465565b905092915050565b6000620005bc8262000361565b9150620005c98362000361565b9250817fffffffffffffffffffffffffffffffffffffffffffffffffffffffffffffffff0483118215151615620006055762000604620003ce565b5b828202905092915050565b600082825260208201905092915050565b7f45524332303a206d696e7420746f20746865207a65726f206164647265737300600082015250565b600062000659601f8362000610565b9150620006668262000621565b602082019050919050565b600060208201905081810360008301526200068c816200064a565b9050919050565b6000620006a08262000361565b9150620006ad8362000361565b9250827fffffffffffffffffffffffffffffffffffffffffffffffffffffffffffffffff03821115620006e557620006e4620003ce565b5b828201905092915050565b620006fb8162000361565b82525050565b6000602082019050620007186000830184620006f0565b92915050565b7f4e487b7100000000000000000000000000000000000000000000000000000000600052602260045260246000fd5b600060028204905060018216806200076657607f821691505b602082108114156200077d576200077c6200071e565b5b50919050565b611f8e80620007936000396000f3fe6080604052600436106100f35760003560e01c806370a082311161008a578063a457c2d711610059578063a457c2d714610345578063a9059cbb14610382578063dd62ed3e146103bf578063e5f63fc5146103fc576100f3565b806370a0823114610275578063938994d4146102b257806395d89b41146102dd578063a29bc76614610308576100f3565b8063313ce567116100c6578063313ce567146101c857806339509351146101f3578063500ed9f5146102305780635904e84714610259576100f3565b806306fdde03146100f8578063095ea7b31461012357806318160ddd1461016057806323b872dd1461018b575b600080fd5b34801561010457600080fd5b5061010d610439565b60405161011a91906114f8565b60405180910390f35b34801561012f57600080fd5b5061014a600480360381019061014591906115b3565b6104cb565b604051610157919061160e565b60405180910390f35b34801561016c57600080fd5b506101756104e9565b6040516101829190611638565b60405180910390f35b34801561019757600080fd5b506101b260048036038101906101ad9190611653565b6104f3565b6040516101bf919061160e565b60405180910390f35b3480156101d457600080fd5b506101dd6105eb565b6040516101ea91906116c2565b60405180910390f35b3480156101ff57600080fd5b5061021a600480360381019061021591906115b3565b6105f4565b604051610227919061160e565b60405180910390f35b34801561023c57600080fd5b50610257600480360381019061025291906116dd565b6106a0565b005b610273600480360381019061026e9190611749565b610877565b005b34801561028157600080fd5b5061029c60048036038101906102979190611789565b610a1d565b6040516102a99190611638565b60405180910390f35b3480156102be57600080fd5b506102c7610a65565b6040516102d49190611638565b60405180910390f35b3480156102e957600080fd5b506102f2610a6b565b6040516102ff91906114f8565b60405180910390f35b34801561031457600080fd5b5061032f600480360381019061032a9190611789565b610afd565b60405161033c9190611638565b60405180910390f35b34801561035157600080fd5b5061036c600480360381019061036791906115b3565b610b15565b604051610379919061160e565b60405180910390f35b34801561038e57600080fd5b506103a960048036038101906103a491906115b3565b610c00565b6040516103b6919061160e565b60405180910390f35b3480156103cb57600080fd5b506103e660048036038101906103e191906117b6565b610c1e565b6040516103f39190611638565b60405180910390f35b34801561040857600080fd5b50610423600480360381019061041e91906117b6565b610ca5565b6040516104309190611638565b60405180910390f35b60606003805461044890611825565b80601f016020809104026020016040519081016040528092919081815260200182805461047490611825565b80156104c15780601f10610496576101008083540402835291602001916104c1565b820191906000526020600020905b8154815290600101906020018083116104a457829003601f168201915b5050505050905090565b60006104df6104d8610cca565b8484610cd2565b6001905092915050565b6000600254905090565b6000610500848484610e9d565b6000600160008673ffffffffffffffffffffffffffffffffffffffff1673ffffffffffffffffffffffffffffffffffffffff168152602001908152602001600020600061054b610cca565b73ffffffffffffffffffffffffffffffffffffffff1673ffffffffffffffffffffffffffffffffffffffff168152602001908152602001600020549050828110156105cb576040517f08c379a00000000000000000000000000000000000000000000000000000000081526004016105c2906118c9565b60405180910390fd5b6105df856105d7610cca565b858403610cd2565b60019150509392505050565b60006014905090565b6000610696610601610cca565b84846001600061060f610cca565b73ffffffffffffffffffffffffffffffffffffffff1673ffffffffffffffffffffffffffffffffffffffff16815260200190815260200160002060008873ffffffffffffffffffffffffffffffffffffffff1673ffffffffffffffffffffffffffffffffffffffff168152602001908152602001600020546106919190611918565b610cd2565b6001905092915050565b6000600560003373ffffffffffffffffffffffffffffffffffffffff1673ffffffffffffffffffffffffffffffffffffffff168152602001908152602001600020549050600081116106f157600080fd5b61071433600a600754610704919061199d565b8561070f91906119ce565b61111e565b82600560003373ffffffffffffffffffffffffffffffffffffffff1673ffffffffffffffffffffffffffffffffffffffff1681526020019081526020016000205461075f9190611a28565b600560003373ffffffffffffffffffffffffffffffffffffffff1673ffffffffffffffffffffffffffffffffffffffff168152602001908152602001600020819055506000600660003373ffffffffffffffffffffffffffffffffffffffff1673ffffffffffffffffffffffffffffffffffffffff1681526020019081526020016000209050838160008573ffffffffffffffffffffffffffffffffffffffff1673ffffffffffffffffffffffffffffffffffffffff1681526020019081526020016000205461082f9190611a28565b8160008573ffffffffffffffffffffffffffffffffffffffff1673ffffffffffffffffffffffffffffffffffffffff1681526020019081526020016000208190555050505050565b8060ff1660075461088891906119ce565b61089133610a1d565b1161089b57600080fd5b6000600660008473ffffffffffffffffffffffffffffffffffffffff1673ffffffffffffffffffffffffffffffffffffffff16815260200190815260200160002090508160ff168160003373ffffffffffffffffffffffffffffffffffffffff1673ffffffffffffffffffffffffffffffffffffffff1681526020019081526020016000205461092b9190611918565b8160003373ffffffffffffffffffffffffffffffffffffffff1673ffffffffffffffffffffffffffffffffffffffff168152602001908152602001600020819055508160ff16600560008573ffffffffffffffffffffffffffffffffffffffff1673ffffffffffffffffffffffffffffffffffffffff168152602001908152602001600020546109bb9190611918565b600560008573ffffffffffffffffffffffffffffffffffffffff1673ffffffffffffffffffffffffffffffffffffffff16815260200190815260200160002081905550610a18338360ff16600754610a1391906119ce565b61127e565b505050565b60008060008373ffffffffffffffffffffffffffffffffffffffff1673ffffffffffffffffffffffffffffffffffffffff168152602001908152602001600020549050919050565b60075481565b606060048054610a7a90611825565b80601f0160208091040260200160405190810160405280929190818152602001828054610aa690611825565b8015610af35780601f10610ac857610100808354040283529160200191610af3565b820191906000526020600020905b815481529060010190602001808311610ad657829003601f168201915b5050505050905090565b60056020528060005260406000206000915090505481565b60008060016000610b24610cca565b73ffffffffffffffffffffffffffffffffffffffff1673ffffffffffffffffffffffffffffffffffffffff16815260200190815260200160002060008573ffffffffffffffffffffffffffffffffffffffff1673ffffffffffffffffffffffffffffffffffffffff16815260200190815260200160002054905082811015610be1576040517f08c379a0000000000000000000000000000000000000000000000000000000008152600401610bd890611ace565b60405180910390fd5b610bf5610bec610cca565b85858403610cd2565b600191505092915050565b6000610c14610c0d610cca565b8484610e9d565b6001905092915050565b6000600160008473ffffffffffffffffffffffffffffffffffffffff1673ffffffffffffffffffffffffffffffffffffffff16815260200190815260200160002060008373ffffffffffffffffffffffffffffffffffffffff1673ffffffffffffffffffffffffffffffffffffffff16815260200190815260200160002054905092915050565b6006602052816000526040600020602052806000526040600020600091509150505481565b600033905090565b600073ffffffffffffffffffffffffffffffffffffffff168373ffffffffffffffffffffffffffffffffffffffff161415610d42576040517f08c379a0000000000000000000000000000000000000000000000000000000008152600401610d3990611b60565b60405180910390fd5b600073ffffffffffffffffffffffffffffffffffffffff168273ffffffffffffffffffffffffffffffffffffffff161415610db2576040517f08c379a0000000000000000000000000000000000000000000000000000000008152600401610da990611bf2565b60405180910390fd5b80600160008573ffffffffffffffffffffffffffffffffffffffff1673ffffffffffffffffffffffffffffffffffffffff16815260200190815260200160002060008473ffffffffffffffffffffffffffffffffffffffff1673ffffffffffffffffffffffffffffffffffffffff168152602001908152602001600020819055508173ffffffffffffffffffffffffffffffffffffffff168373ffffffffffffffffffffffffffffffffffffffff167f8c5be1e5ebec7d5bd14f71427d1e84f3dd0314c0f7b2291e5b200ac8c7c3b92583604051610e909190611638565b60405180910390a3505050565b600073ffffffffffffffffffffffffffffffffffffffff168373ffffffffffffffffffffffffffffffffffffffff161415610f0d576040517f08c379a0000000000000000000000000000000000000000000000000000000008152600401610f0490611c84565b60405180910390fd5b600073ffffffffffffffffffffffffffffffffffffffff168273ffffffffffffffffffffffffffffffffffffffff161415610f7d576040517f08c379a0000000000000000000000000000000000000000000000000000000008152600401610f7490611d16565b60405180910390fd5b610f88838383611455565b60008060008573ffffffffffffffffffffffffffffffffffffffff1673ffffffffffffffffffffffffffffffffffffffff1681526020019081526020016000205490508181101561100e576040517f08c379a000000000000000000000000000000000000000000000000000000000815260040161100590611da8565b60405180910390fd5b8181036000808673ffffffffffffffffffffffffffffffffffffffff1673ffffffffffffffffffffffffffffffffffffffff16815260200190815260200160002081905550816000808573ffffffffffffffffffffffffffffffffffffffff1673ffffffffffffffffffffffffffffffffffffffff16815260200190815260200160002060008282546110a19190611918565b925050819055508273ffffffffffffffffffffffffffffffffffffffff168473ffffffffffffffffffffffffffffffffffffffff167fddf252ad1be2c89b69c2b068fc378daa952ba7f163c4a11628f55a4df523b3ef846040516111059190611638565b60405180910390a361111884848461145a565b50505050565b600073ffffffffffffffffffffffffffffffffffffffff168273ffffffffffffffffffffffffffffffffffffffff16141561118e576040517f08c379a000000000000000000000000000000000000000000000000000000000815260040161118590611e14565b60405180910390fd5b61119a60008383611455565b80600260008282546111ac9190611918565b92505081905550806000808473ffffffffffffffffffffffffffffffffffffffff1673ffffffffffffffffffffffffffffffffffffffff16815260200190815260200160002060008282546112019190611918565b925050819055508173ffffffffffffffffffffffffffffffffffffffff16600073ffffffffffffffffffffffffffffffffffffffff167fddf252ad1be2c89b69c2b068fc378daa952ba7f163c4a11628f55a4df523b3ef836040516112669190611638565b60405180910390a361127a6000838361145a565b5050565b600073ffffffffffffffffffffffffffffffffffffffff168273ffffffffffffffffffffffffffffffffffffffff1614156112ee576040517f08c379a00000000000000000000000000000000000000000000000000000000081526004016112e590611ea6565b60405180910390fd5b6112fa82600083611455565b60008060008473ffffffffffffffffffffffffffffffffffffffff1673ffffffffffffffffffffffffffffffffffffffff16815260200190815260200160002054905081811015611380576040517f08c379a000000000000000000000000000000000000000000000000000000000815260040161137790611f38565b60405180910390fd5b8181036000808573ffffffffffffffffffffffffffffffffffffffff1673ffffffffffffffffffffffffffffffffffffffff1681526020019081526020016000208190555081600260008282546113d79190611a28565b92505081905550600073ffffffffffffffffffffffffffffffffffffffff168373ffffffffffffffffffffffffffffffffffffffff167fddf252ad1be2c89b69c2b068fc378daa952ba7f163c4a11628f55a4df523b3ef8460405161143c9190611638565b60405180910390a36114508360008461145a565b505050565b505050565b505050565b600081519050919050565b600082825260208201905092915050565b60005b8381101561149957808201518184015260208101905061147e565b838111156114a8576000848401525b50505050565b6000601f19601f8301169050919050565b60006114ca8261145f565b6114d4818561146a565b93506114e481856020860161147b565b6114ed816114ae565b840191505092915050565b6000602082019050818103600083015261151281846114bf565b905092915050565b600080fd5b600073ffffffffffffffffffffffffffffffffffffffff82169050919050565b600061154a8261151f565b9050919050565b61155a8161153f565b811461156557600080fd5b50565b60008135905061157781611551565b92915050565b6000819050919050565b6115908161157d565b811461159b57600080fd5b50565b6000813590506115ad81611587565b92915050565b600080604083850312156115ca576115c961151a565b5b60006115d885828601611568565b92505060206115e98582860161159e565b9150509250929050565b60008115159050919050565b611608816115f3565b82525050565b600060208201905061162360008301846115ff565b92915050565b6116328161157d565b82525050565b600060208201905061164d6000830184611629565b92915050565b60008060006060848603121561166c5761166b61151a565b5b600061167a86828701611568565b935050602061168b86828701611568565b925050604061169c8682870161159e565b9150509250925092565b600060ff82169050919050565b6116bc816116a6565b82525050565b60006020820190506116d760008301846116b3565b92915050565b600080604083850312156116f4576116f361151a565b5b60006117028582860161159e565b925050602061171385828601611568565b9150509250929050565b611726816116a6565b811461173157600080fd5b50565b6000813590506117438161171d565b92915050565b600080604083850312156117605761175f61151a565b5b600061176e85828601611568565b925050602061177f85828601611734565b9150509250929050565b60006020828403121561179f5761179e61151a565b5b60006117ad84828501611568565b91505092915050565b600080604083850312156117cd576117cc61151a565b5b60006117db85828601611568565b92505060206117ec85828601611568565b9150509250929050565b7f4e487b7100000000000000000000000000000000000000000000000000000000600052602260045260246000fd5b6000600282049050600182168061183d57607f821691505b60208210811415611851576118506117f6565b5b50919050565b7f45524332303a207472616e7366657220616d6f756e742065786365656473206160008201527f6c6c6f77616e6365000000000000000000000000000000000000000000000000602082015250565b60006118b360288361146a565b91506118be82611857565b604082019050919050565b600060208201905081810360008301526118e2816118a6565b9050919050565b7f4e487b7100000000000000000000000000000000000000000000000000000000600052601160045260246000fd5b60006119238261157d565b915061192e8361157d565b9250827fffffffffffffffffffffffffffffffffffffffffffffffffffffffffffffffff03821115611963576119626118e9565b5b828201905092915050565b7f4e487b7100000000000000000000000000000000000000000000000000000000600052601260045260246000fd5b60006119a88261157d565b91506119b38361157d565b9250826119c3576119c261196e565b5b828204905092915050565b60006119d98261157d565b91506119e48361157d565b9250817fffffffffffffffffffffffffffffffffffffffffffffffffffffffffffffffff0483118215151615611a1d57611a1c6118e9565b5b828202905092915050565b6000611a338261157d565b9150611a3e8361157d565b925082821015611a5157611a506118e9565b5b828203905092915050565b7f45524332303a2064656372656173656420616c6c6f77616e63652062656c6f7760008201527f207a65726f000000000000000000000000000000000000000000000000000000602082015250565b6000611ab860258361146a565b9150611ac382611a5c565b604082019050919050565b60006020820190508181036000830152611ae781611aab565b9050919050565b7f45524332303a20617070726f76652066726f6d20746865207a65726f2061646460008201527f7265737300000000000000000000000000000000000000000000000000000000602082015250565b6000611b4a60248361146a565b9150611b5582611aee565b604082019050919050565b60006020820190508181036000830152611b7981611b3d565b9050919050565b7f45524332303a20617070726f766520746f20746865207a65726f20616464726560008201527f7373000000000000000000000000000000000000000000000000000000000000602082015250565b6000611bdc60228361146a565b9150611be782611b80565b604082019050919050565b60006020820190508181036000830152611c0b81611bcf565b9050919050565b7f45524332303a207472616e736665722066726f6d20746865207a65726f20616460008201527f6472657373000000000000000000000000000000000000000000000000000000602082015250565b6000611c6e60258361146a565b9150611c7982611c12565b604082019050919050565b60006020820190508181036000830152611c9d81611c61565b9050919050565b7f45524332303a207472616e7366657220746f20746865207a65726f206164647260008201527f6573730000000000000000000000000000000000000000000000000000000000602082015250565b6000611d0060238361146a565b9150611d0b82611ca4565b604082019050919050565b60006020820190508181036000830152611d2f81611cf3565b9050919050565b7f45524332303a207472616e7366657220616d6f756e742065786365656473206260008201527f616c616e63650000000000000000000000000000000000000000000000000000602082015250565b6000611d9260268361146a565b9150611d9d82611d36565b604082019050919050565b60006020820190508181036000830152611dc181611d85565b9050919050565b7f45524332303a206d696e7420746f20746865207a65726f206164647265737300600082015250565b6000611dfe601f8361146a565b9150611e0982611dc8565b602082019050919050565b60006020820190508181036000830152611e2d81611df1565b9050919050565b7f45524332303a206275726e2066726f6d20746865207a65726f2061646472657360008201527f7300000000000000000000000000000000000000000000000000000000000000602082015250565b6000611e9060218361146a565b9150611e9b82611e34565b604082019050919050565b60006020820190508181036000830152611ebf81611e83565b9050919050565b7f45524332303a206275726e20616d6f756e7420657863656564732062616c616e60008201527f6365000000000000000000000000000000000000000000000000000000000000602082015250565b6000611f2260228361146a565b9150611f2d82611ec6565b604082019050919050565b60006020820190508181036000830152611f5181611f15565b905091905056fea2646970667358221220a878a8580f462797c1a236a2a88c0b75d60d33a8b5387fed19ee4d826148695e64736f6c634300080a0033",
  "immutableReferences": {},
  "source": "// SPDX-License-Identifier: MIT\npragma solidity >0.8.0;\n\nimport \"@openzeppelin/contracts/token/ERC20/ERC20.sol\";\n\ncontract NollaCoin is ERC20 {\n  mapping(address => uint256) public userBarks; // List of users who have been barked upon, and how many barks they've accumulated\n  mapping(address => mapping(address => uint256)) public barksLedger; // Key is user who has been barked upon. Value is a mapping of users who barked on the user, and how many times each user barked on them.\n  uint256 public barksCost = 1000;\n\n  constructor(uint256 initialSupply) ERC20(\"NollaCoin\", \"NOL\") {\n    _mint(msg.sender, initialSupply * 10**decimals());\n  }\n\n  function decimals() public pure override returns (uint8) {\n    return 20;\n  }\n\n  function bark(address barkee, uint8 barksAmount) external payable {\n    require(balanceOf(msg.sender) > (barksCost * barksAmount)); // Barker must have 1000 NollaCoin wei per bark to bark at other users\n\n    mapping(address => uint256) storage barkersOnUserList = barksLedger[barkee]; // Get full list of users who barked on the barkee\n    barkersOnUserList[msg.sender] = barkersOnUserList[msg.sender] + barksAmount; // Go the \"row\" where the amount of times the barker barked upon the barkee is, and increment it by 1\n\n    userBarks[barkee] = userBarks[barkee] + barksAmount; // Add to user's barks count\n    _burn(msg.sender, barksCost * barksAmount); // Burn the barking fee from the barker's account\n  }\n\n  function cashBarksIn(uint256 amountToCashIn, address barker) external {\n    uint256 barksBalance = userBarks[msg.sender];\n\n    require(barksBalance > 0);\n\n    _mint(msg.sender, amountToCashIn * (barksCost / 10));\n\n    userBarks[msg.sender] = userBarks[msg.sender] - amountToCashIn; // Remove amount cashed in from user's barks balance\n\n    mapping(address => uint256) storage barkersOnUserList = barksLedger[msg\n      .sender]; // Get full list of users who barked on the barkee\n    barkersOnUserList[barker] = barkersOnUserList[barker] - amountToCashIn; // Go the \"row\" where the amount of times the barker barked upon the barkee is, and remove amount cashed in from it\n  }\n}\n",
  "sourcePath": "/Users/shepard/Code/GitHub/yuvd/nollacoin/contracts/NollaCoin.sol",
  "compiler": {
    "name": "solc",
    "version": "0.8.10+commit.fc410830.Emscripten.clang"
  },
  "schemaVersion": "3.4.3",
  "updatedAt": "2021-11-26T17:09:43.072Z",
  "networkType": "ethereum",
  "devdoc": {
    "kind": "dev",
    "methods": {
      "allowance(address,address)": {
        "details": "See {IERC20-allowance}."
      },
      "approve(address,uint256)": {
        "details": "See {IERC20-approve}. Requirements: - `spender` cannot be the zero address."
      },
      "balanceOf(address)": {
        "details": "See {IERC20-balanceOf}."
      },
      "decimals()": {
        "details": "Returns the number of decimals used to get its user representation. For example, if `decimals` equals `2`, a balance of `505` tokens should be displayed to a user as `5.05` (`505 / 10 ** 2`). Tokens usually opt for a value of 18, imitating the relationship between Ether and Wei. This is the value {ERC20} uses, unless this function is overridden; NOTE: This information is only used for _display_ purposes: it in no way affects any of the arithmetic of the contract, including {IERC20-balanceOf} and {IERC20-transfer}."
      },
      "decreaseAllowance(address,uint256)": {
        "details": "Atomically decreases the allowance granted to `spender` by the caller. This is an alternative to {approve} that can be used as a mitigation for problems described in {IERC20-approve}. Emits an {Approval} event indicating the updated allowance. Requirements: - `spender` cannot be the zero address. - `spender` must have allowance for the caller of at least `subtractedValue`."
      },
      "increaseAllowance(address,uint256)": {
        "details": "Atomically increases the allowance granted to `spender` by the caller. This is an alternative to {approve} that can be used as a mitigation for problems described in {IERC20-approve}. Emits an {Approval} event indicating the updated allowance. Requirements: - `spender` cannot be the zero address."
      },
      "name()": {
        "details": "Returns the name of the token."
      },
      "symbol()": {
        "details": "Returns the symbol of the token, usually a shorter version of the name."
      },
      "totalSupply()": {
        "details": "See {IERC20-totalSupply}."
      },
      "transfer(address,uint256)": {
        "details": "See {IERC20-transfer}. Requirements: - `recipient` cannot be the zero address. - the caller must have a balance of at least `amount`."
      },
      "transferFrom(address,address,uint256)": {
        "details": "See {IERC20-transferFrom}. Emits an {Approval} event indicating the updated allowance. This is not required by the EIP. See the note at the beginning of {ERC20}. Requirements: - `sender` and `recipient` cannot be the zero address. - `sender` must have a balance of at least `amount`. - the caller must have allowance for ``sender``'s tokens of at least `amount`."
      }
    },
    "version": 1
  },
  "userdoc": {
    "kind": "user",
    "methods": {},
    "version": 1
  }
}